:020000040800F2
:100000009008002055020008D51800084D16000879
:10001000D11800085D030008CD2000080000000092
:10002000000000000000000000000000DD180008D3
:100030006103000800000000D9180008E11800085A
:100040006F0200086F0200086F0200086F020008CC
:100050006F0200086F0200086F0200086F020008BC
:100060006F0200086F0200086F0200086F020008AC
:100070006F0200086F0200086F0200086F0200089C
:100080006F0200086F0200086F0200086F0200088C
:100090006F0200086F0200086F0200086F0200087C
:1000A0006F0200086F0200086F0200086F0200086C
:1000B0006F0200086F0200086F0200086F0200085C
:1000C0006F0200086F0200086F0200086F0200084C
:1000D0006F0200086F0200086F0200086F0200083C
:1000E0006F0200086F0200086F0200086F0200082C
:1000F0006F0200086F02000800000000000000000E
:1001000000000000000000006F0200086F020008FD
:1001100000000000000000006F0200086F020008ED
:100120006F0200086F0200086F0200086F020008EB
:100130006F0200086F0200086F0200086F020008DB
:100140006F02000800000000000000000000000036
:10015000000000000000000000000000000000009F
:1001600000000000000000006F0200086F0200089D
:100170006F020008000000006F020008000000008D
:10018000000000006F02000800F002F800F052F8D2
:1001900014A696E8000CB244B344DA4501D100F04D
:1001A00049F8BAE80F000FA696E83000A5EB040561
:1001B00004EB0607AAEB0704A7F101074FEA1515A0
:1001C0004FEA3414A4F10104AC4201D300F032F838
:1001D00013F0010F18BFFB1A43F0010300F001F800
:1001E000DBE71847741F0000941F0000103A24BF7B
:1001F00078C878C1FAD8520724BF30C830C144BF8C
:1002000004680C6070470000704700000023002461
:1002100000250026103A28BF78C1FBD8520728BF16
:1002200030C148BF0B6070471FB501F064FF1FBDB0
:1002300010B510BD00F058F81146FFF7F5FF01F0BA
:1002400047FF00F076F803B4FFF7F2FF03BC00F0BD
:100250007DF800000948804709480047FEE7FEE7AF
:10026000FEE7FEE7FEE7FEE7FEE7FEE7FEE7FEE766
:1002700004480549054A064B7047000095190008D7
:1002800089010008900200209008002090040020BE
:10029000900400204FF0000200B5134694469646A5
:1002A000203922BFA0E80C50A0E80C50B1F1200189
:1002B000BFF4F7AF090728BFA0E80C5048BF0CC037
:1002C0005DF804EB890028BF40F8042B08BF704795
:1002D00048BF20F8022B11F0804F18BF00F8012B07
:1002E0007047704770477047754600F02BF8AE4670
:1002F00005006946534620F00700854618B020B532
:10030000FFF7B6FFBDE820404FF000064FF00007B2
:100310004FF000084FF0000BAC46ACE8C009ACE869
:10032000C009ACE8C009ACE8C00921F007018D465E
:10033000704710B50446AFF300802046BDE810407A
:10034000FFF781BF004870471000002001491820C6
:10035000ABBEFEE72600020070470000FEE700008B
:1003600070470000EFF3108072B600BFFEE7000098
:10037000F0B581B00022009290F82420012A03D128
:10038000022001B0F0BD00BF4B680122062B80F8AF
:10039000242013D8076803EB8303A3F1050E1F2362
:1003A000D7F834C003FA0EF40B682CEA040C03FAF5
:1003B0000EF444EA0C047C6325E000BF07680C2BB4
:1003C00003EB830310D8A3F123041F23D7F830C015
:1003D00003FA04FE0B682CEA0E0C03FA04F444EA58
:1003E0000C043C630FE000BFA3F141041F23D7F8C6
:1003F0002CC003FA04FE0B682CEA0E0C03FA04F47A
:1004000044EA0C04FC6203EB430410220A2B88BF6D
:100410001E3C88BF0C22BD5807268968A64025EAE5
:100420000606A1403143A3F11006022EB9502DD289
:10043000B968102B41F40001B96030D140F20801D5
:10044000C2F2000109684DF68362C4F21B32A1FBBF
:100450000212910C01EB8101490000910099F1B168
:100460000099013900910099C9B1009901390091B1
:100470000099A1B1009901390091009979B10099D1
:100480000139009100990029EAD108E0122B06D128
:100490000021C4F201010A6842F080720A60002162
:1004A00080F82410002001B0F0BD0000002804BF37
:1004B00001207047B0B50446806A28B12168886879
:1004C000C0070CD115E000BF0020E06284F82400D2
:1004D000204600F097F821688868C00709D088682E
:1004E00020F00100886000F0B5F921688A68D20721
:1004F00026D1A06AC0063AD4A06A41F20212904303
:100500000230A062E069D4E9013240EA030C531ED4
:10051000B3FA83F35D091346B2F5807F18BF2B024F
:10052000207D257B01284CEA45002CD135B3A56AF6
:1005300045F02005A562E56A45F00105E56222E087
:10054000054602E08868C007D3D000F083F9401B5D
:1005500021680328F6D38868C007F3D0A06A40F06A
:100560001000A062E06A40F00100E062A06AA06AA8
:1005700040F01000A0620120B0BD00BFA56903EBF0
:100580004533A3F5C0534D68B2F5807F25F4694526
:1005900043EA05034B608B684FF2FD75CFF6E175BA
:1005A00003EA050343EA00038B6001D0012A07D167
:1005B00022690023CFF6F07303EB025201E000BF83
:1005C0000022CB6A23F470031A43CA62896840F69A
:1005D000FE62CFF61F721140814207D10020E06217
:1005E000A16A012262F30101A162B0BDA06A40F0DC
:1005F000100020F00200A062E06A40F00100E0621A
:100600000120B0BD80B586B0006842F20042C4F25D
:10061000010200219042CDE90411CDE902110191BE
:1006200002D006B080BD00BF41F21400C4F2020047
:10063000426842F400724260426802F40072009222
:10064000009A026842F400320260006800F4003050
:1006500000900098F02001900320CDE9020101A94B
:100660004FF0904000F016F806B080BDB0B50446DB
:1006700000F0F0F8054640F20000C2F200000078F9
:10068000611C18BF044400BF00F0E4F8401BA04206
:10069000FAD3B0BD2DE9F04F83B00E68002E00F004
:1006A000CF8000F1200241F2000C009200F13847A7
:1006B000C4F6000C05224FEAB725604508BF0422A6
:1006C000042D38BF4FEAB722002500274FF000085D
:1006D00001920AE00E6808F1010836FA08F207F103
:1006E000020705F1040500F0AB80012202FA08FEC2
:1006F00016EA0E09EED0D1F804C003220CF0030B69
:10070000ABF1010602FA07F4012E6FEA040A11D8D0
:100710008468CE6804EA0A04BE40344384604468B6
:1007200024EA0E06CCF3001404FA08F426434660CB
:1007300006E000BFBBF1030F02D14FF0030B21E035
:10074000C6688C6806EA0A06BC402643BBF1020F65
:10075000C66017D16FF00302009B02EA580605F04D
:100760001C020F2453F806C004FA02FE0C692CEA9E
:100770000E0C04FA02F242EA0C029A51D1F804C0BB
:100780000CF0030B02680BFA07F302EA0A021A43A1
:100790001CF4403F02609DD041F21803C4F20203F2
:1007A0001A6840F2004E42F001021A601A68C4F260
:1007B000010E02F001020292029A28F003024FF6A3
:1007C000084C7244CFF6FF7C52F80C3005F00C0652
:1007D0000F24B440A343019C04FA06F6334342F8C5
:1007E0000C30DEF808204B6842EA090640F20C4C57
:1007F000DC0258BF22EA0906CEF80860C4F2010CF8
:10080000DCF800209C0242EA090658BF22EA0906E9
:10081000CCF80060DEF804209C0342EA090658BFC9
:1008200022EA0906CEF80460DEF80020DB0342EA83
:10083000090658BF22EA0906CEF800604AE700BF61
:1008400003B0BDE8F08F00001823002A08BF28235A
:10085000C150704740F28C20C2F20000006870471F
:1008600090F84120202A03D190F84020012A01D19C
:1008700002207047242280F841200268136823F088
:1008800001031360136823F4805313601368194342
:100890001160116841F001011160202180F84110C0
:1008A000002180F8401000207047000090F841209F
:1008B000202A03D190F84020012A01D1022070475C
:1008C000242280F841200268136823F0010313609A
:1008D000136823F4706343EA01211160116841F049
:1008E00001011160202180F84110002180F84010A2
:1008F0000020704781B041F21801C4F202010A6879
:1009000042F001020A60096801F0010100910099BA
:100910000021C4F201010A681043086001B0704769
:10092000002804BF0120704710B590F8411031B97C
:10093000002180F84010044600F04AF820462421A7
:1009400080F8411090E81210C3680A68012B22F069
:1009500001020A6024F070620A618A6822F400428F
:100960008A6003D14CF400428A6009E04CF40442EE
:10097000022B8A6004D14A6842F4006203E000BF9F
:100980004A6822F400624A604A6800F1100C42F0A2
:10099000007242F400424A60CA6822F40042CA600F
:1009A0009CE81C101A4342EA0422CA60026A42EA26
:1009B0000C020A600A6842F001020A60002120224B
:1009C000416480F84120016380F84210002010BD8E
:1009D00010B586B0006845F20042C4F20002002162
:1009E0009042CDE90411CDE90211019102D006B087
:1009F00010BD00BF41F21404C4F20204206840F4A8
:100A000080202060206800F48020009000984FF43F
:100A1000407001901220CDE90201032004900420CF
:100A2000059040F20040C4F6000001A9FFF732FE35
:100A3000A06840F40010A060A06800F400100090CE
:100A4000009806B010BD000040F2000040F28C217A
:100A5000C2F20000C2F2000100780A681044086087
:100A60007047000080B542F20000C4F20200016845
:100A700041F010010160032000F072F80F2000F037
:100A800005F800F027F8002080BD000070B540F2A6
:100A90000006C2F2000640F208013278C2F20001FC
:100AA0004FF47A730968B3FBF2F20446B1FBF2F13A
:100AB000084600F017FD0F2C4FF0010508D838B993
:100AC0004FF0FF3021460022002500F01DF8746031
:100AD000284670BD82B041F21800C4F202000168DD
:100AE00041F001010160016801F0010101910199EA
:100AF000416841F080514160406800F080500090B2
:100B0000009802B07047000010B54EF60C5CCEF2B3
:100B1000000CDCF80030C3F3022E8EF00704042C26
:100B200028BF0424BEF103034FF0FF3E0EFA04F485
:100B300038BF0023A14399400EFA03F39A431143AF
:100B400000F00F0200F160430901043A03F5644329
:100B50006244002848BF02F10C03197010BD000068
:100B60004EF60C51CEF200010A684FF6FF031A4010
:100B700060F30A2242F0806040F0FD700860704728
:100B800081B041F21C01C4F202010A6842F08052B5
:100B90000A60096801F080510091009947F2000154
:100BA000C4F200010A681043086001B070470000F9
:100BB0002DE9F04182B00446807841F23006C0074A
:100BC000C4F2020655D056F8140C5FEAC0080BD4E4
:100BD00056F8140C40F0805046F8140C56F8140CDB
:100BE00000F080500190019847F20007C4F200071E
:100BF0003868C00512D4386840F480703860FFF758
:100C000029FE05463868C00508D4FFF723FE401BBF
:100C10006428F7D9032002B0BDE8F08156F8100C23
:100C200010F4407014D0616801F4407188420FD014
:100C300056F8100C40F24042C4F24222012320F444
:100C4000407113600023C007136046F8101C75D173
:100C500056F8100C616820F440700843B8F1000F9A
:100C600046F8100C05D456F8140C20F0805046F8C5
:100C7000140C2068C10719D181071FD4410725D45E
:100C800081062BD4810331D4410639D401063FD4E7
:100C9000010547D4400505D53068616A20F0400061
:100CA00008433060002002B0BDE8F0813168A268DE
:100CB00021F00301114331608107DFD53168E2681B
:100CC00021F44031114331604107D9D5316822699F
:100CD00021F44021114331608106D3D53168626926
:100CE00021F01001114331608103CDD556F82C1C41
:100CF000A26A21F48001114346F82C1C4106C5D597
:100D00003168A26921F02001114331600106BFD58D
:100D100056F82C1CE26921F44041114346F82C1C82
:100D20000105B7D556F82C1C226A21F078411143F1
:100D300046F82C1C4005AFD4B4E700BFFFF78AFD8E
:100D4000054641F2883700BF56F8100C80073FF582
:100D50007FAFFFF77FFD401BB8424FF00300F3D990
:100D6000A1E70000002804BF012070472DE9F043EF
:100D700081B042F20008C4F202080446D8F800002C
:100D80000D4600F0070088420CD2D8F8000020F091
:100D900007002843C8F80000D8F8000000F007005A
:100DA000A8425ED1206841F204098107C4F2020919
:100DB00007D5D9F80010A26821F0F0011143C9F855
:100DC0000010C00744D1D8F8000000F00700A84286
:100DD0000CD9D8F8000020F007002843C8F800001C
:100DE000D8F8000000F00700A8423AD12068410777
:100DF00007D5D9F80010E26821F4E0611143C9F881
:100E00000010000708D5D9F80000216920F46050CF
:100E100040EAC100C9F80000D9F8002002F00C0037
:100E2000082841F20020C0F27A004DD142F2281386
:100E3000C2F38341C0F60003595CD9F82830D203CD
:100E400038D440F60010C0F23D0048433CE000BFFB
:100E5000606859F8041C022808D0012826D18903AB
:100E600006D4012001B0BDE8F08300BF8901F8D5A8
:100E7000D9F8001021F003010843C9F80000FFF77A
:100E8000E9FC064641F28837D9F80000616800F0B5
:100E90000C00B0EB810F96D0FFF7DCFC801BB84252
:100EA000F2D9032001B0BDE8F08300BF8907D8D58F
:100EB000DEE700BF03F00F0242F23813C0F6000372
:100EC0009A5CB0FBF2F04843D9F8001042F21012DD
:100ED000C1F30311C0F60002515C40F2080220FA8F
:100EE00001F140F20400C2F200000068C2F2000208
:100EF0001160FFF7CBFD002001B0BDE8F0830000DA
:100F000040F2080041F20401C2F20000C4F2020102
:100F10000068096842F22012C1F30221C0F6000203
:100F2000515CC8407047000040F2080041F20401E3
:100F3000C2F20000C4F202010068096842F2201205
:100F4000C1F3C221C0F60002515CC84070470000E6
:100F500041F2040CC4F2020CDCF8002002F00C0098
:100F6000082841F20020C0F27A0018BF704742F210
:100F70002811C2F38343C0F60001CB5CDCF82810D3
:100F8000D20305D440F60010C0F23D00584370472C
:100F900042F2381201F00F01C0F60002515CB0FBC2
:100FA000F1F0584370470000002804BF012070474B
:100FB0002DE9F04182B00446007841F20006C007F6
:100FC000C4F202060CD0706800F00C00042840F057
:100FD0007F803068800303D56068002800F02E8190
:100FE000207880071BD5706810F00C0F09D070684E
:100FF00000F00C00082840F09F807068C00300F1EA
:101000009B803068800703D52069012840F0168155
:101010003068616920F0F80040EAC1003060207853
:10102000000713D4207840072AD4E569002D00F08A
:101030000081706800F00C00082840F0BB80012D92
:1010400040F0EC80012002B0BDE8F081A0690028EA
:1010500000F098800020C4F242200121C0F88014E2
:10106000FFF7F8FB054600BF706A8007DAD4FFF788
:10107000F1FB401B0228F7D9032002B0BDE8F08144
:10108000F0695FEAC00808D4F06940F08050F06170
:10109000F06900F080500190019847F20007C4F217
:1010A00000073868C00561D4386840F48070386043
:1010B000FFF7D0FB054600BF3868C00556D4FFF7E0
:1010C000C9FB401B6428F7D9032002B0BDE8F081BA
:1010D000706800F00C00082803D17068C0033FF569
:1010E00078AF61683068B1F5A02F00F0ED80B1F500
:1010F000803F00F0ED80002920F4803040F0EC804B
:101100003060306820F480203060F06AA16820F000
:101110000F000843F062FFF79DFB0546306880032F
:101120007FF55EAFFFF796FB401B64284FF003008E
:10113000F4D902B0BDE8F0812069002840F2000037
:10114000C4F2422058D001210160FFF783FB05461D
:10115000306880073FF55CAFFFF77CFB401B02283F
:10116000F6D9032002B0BDE8F08100BFE168306A23
:1011700000296FD0052965D0012940F0838040F017
:10118000010085E00020C4F242200021C0F8801454
:10119000FFF760FB054600BF706A80077FF542AF2E
:1011A000FFF758FB401B0228F6D9032002B0BDE828
:1011B000F08100BF0027C4F2422700203866FFF705
:1011C00049FB022D05460BD13068800140F1A0801B
:1011D000FFF740FB401B02284FF00300F4D9A8E7BB
:1011E0003068800125D5FFF735FB401B02284FF002
:1011F0000300F5D99DE700BF00210160FFF72AFB3E
:10120000054600BF306880077FF509AFFFF722FB76
:10121000401B02284FF00300F4D98AE77068216A66
:1012200000F480328A4209D1616A00F47010884269
:1012300004D1002002B0BDE8F08100BF012002B05F
:10124000BDE8F08140F004003062306A40F00100F7
:101250001EE000BF20F001003062306A20F0040080
:101260003062FFF7F7FA054641F28837306A8007A7
:1012700020D5FFF7EFFA401BB8424FF00300F5D935
:1012800057E700BF20F001003062306A20F0040010
:101290003062FFF7DFFA054641F28837306A80078F
:1012A00008D4FFF7D7FA401BB842F7D9032002B0A1
:1012B000BDE8F081B8F1000F3FF5B7AEF06920F05E
:1012C0008050F061B1E600BF40F4802030603068AB
:1012D00040F4803004E000BF3060306820F48020AB
:1012E0003060F06AA16820F00F000843F062FFF759
:1012F000B1FA0546306880033FF572AEFFF7AAFAEF
:10130000401B6428F6D9032002B0BDE8F08100BF7D
:101310007068D4E9081220F4741010430843706018
:1013200001203866FFF796FA044600BF3068800156
:101330003FF57FAFFFF78EFA001B02284FF0030046
:10134000F4D9F6E670B5044600284FF0010008BF56
:1013500070BD46F2000600214FF40052C4E90800B7
:101360002046C4F20106C4E90611C4E90A11C4E921
:101370000C21A163216400F03BF894E80F001943AD
:10138000056825F4E055056005682943016041685A
:1013900021F08071416041681143416032682169E8
:1013A00002F440728A420AD0306820F44070306003
:1013B0003068084330600220FFF758F92068416820
:1013C00041F001014160FFF745FA05462068806859
:1013D000000407D5FFF73EFA401BC828F6D90320C2
:1013E00070BD00BF012084F83C00002070BD0000EB
:1013F0002DE9F04186B00146096846F6000240F248
:101400000040C4F20102C4F6000091424FF0000215
:101410000592CDE90322CDE901222BD046F200024C
:10142000C4F2010291425AD141F21401C4F2020104
:101430004A6800F5406842F080724A604A684FF49A
:10144000407602F080720092009A0A6842F480228C
:101450000A600A6802F480220092009A0A6842F444
:1014600000120A60096801F4001100910099072137
:1014700025E000BF41F21401C4F202014A6800F500
:10148000006842F080624A604A684FF4807602F059
:1014900080620092009A0A6842F480220A600A6818
:1014A00002F480220092009A0A6842F480120A60D4
:1014B000096801F48011009100994FF440410191B5
:1014C00001AD03270024294602970394FFF7E2F8B1
:1014D00040462946CDE901670394FFF7DBF806B0E3
:1014E000BDE8F081411E0020B0EB116F1CBF012050
:1014F00070474EF21002CEF2000251604EF62351B8
:10150000CEF20001F0230B7007219060116070474C
:1015100010B5C0B10446C06F28B9002084F8780027
:10152000204600F025F82420E0672068616A026800
:1015300022F00102026011B1204600F035FA204687
:1015400000F05AFB10B1012010BD00BF21684868AF
:1015500020F490404860886820F02A00886008687D
:1015600040F0010220460A60BDE8104000F090BA49
:1015700080B586B0006844F20042C4F20002002147
:101580009042CDE90411CDE90211019136D043F624
:101590000001C4F20101884256D141F21400C4F2A4
:1015A0000200416841F480414160416801F480419A
:1015B00000910099016841F480210160006801A94F
:1015C00000F4802000900098C0200190022002903A
:1015D00000200390032004900720059040F2004073
:1015E000C4F60000FFF756F84FF48030FFF782F999
:1015F0004FF40030FFF77EF906B080BD41F21400D1
:10160000C4F20200826842F400328260826802F40E
:1016100000320092009A026842F480220260006860
:1016200000F4802000900098182001900220CDE95D
:101630000201032004900720059040F20040C4F608
:10164000000001A9FFF726F806B080BDFEE7000004
:10165000B0B584B040F2700042F20041C2F2000026
:10166000C4F2010100244FF46022012504730475C3
:10167000C261C0E9001484600561FEF717FF00280D
:1016800018BFFEF76FFE0420CDE9010540F270009F
:10169000C2F2000001A90394FEF76AFE002818BFF9
:1016A000FEF760FE04B0B0BD2DE9F04186B0002623
:1016B00041F214000596CDE90366CDE90166C4F256
:1016C0000200016840F6000441F400210160016855
:1016D000C4F6000401F40021009100990168002281
:1016E00041F480010160016840F28E3501F480010F
:1016F00000910099016841F400310160016801F432
:10170000003100910099016841F480210160016875
:1017100001F4802100910099016841F400110160F9
:10172000016801F4001100910099016841F48011F1
:101730000160006840F28E3100F480100090009843
:101740002046FFF781F84FF0904040F607610022F5
:1017500040F60768FFF778F8019501AD01272046AC
:101760002946CDE902760496FEF794FF4FF09040AB
:101770002946CDE90187CDE90366FEF78BFF06B068
:10178000BDE8F08180B540F2A00045F20041C2F210
:101790000000C4F2000141F62B520023C0F22002E7
:1017A0004FF0010C80E80E10C0E90433C0E90633A5
:1017B0000362FFF7B5F8002818BFFEF7D3FD40F22B
:1017C000A000C2F200000021FFF74AF8002818BF6D
:1017D000FEF7C8FD40F2A000C2F200000021FFF7B2
:1017E00065F8002808BF80BDBDE88040FEF7BABD9F
:1017F00080B540F2F40046F20001C2F20000C4F2EB
:1018000001010022C0E90012C0E902220261FFF7D3
:1018100099FD002808BF80BDBDE88040FEF7A2BD4D
:1018200080B540F2381046F60001C2F20000C4F262
:1018300001010022C0E90012C0E902220261FFF7A3
:1018400081FD002808BF80BDBDE88040FEF78ABD4D
:1018500080B540F27C1043F60001C2F20000C4F2F1
:10186000010100234FF00C0C4FF4E13280E80E0030
:10187000C0E90333C0E905C3C0E907334362FFF79A
:1018800047FE002808BF80BDBDE88040FEF76ABD66
:1018900080B540F2042044F20041C2F20000C4F2DC
:1018A000000100234FF00C0C4FF4E13280E80E00F1
:1018B000C0E90333C0E905C3C0E907334362FFF75A
:1018C00027FE002808BF80BDBDE88040FEF74ABD66
:1018D000FEE70000FEE700007047000070470000D0
:1018E000FFF7B2B8B0B59AB068460024043028219A
:1018F000CDE91544CDE91344FEF7CCFC032010904C
:101900004FF480300225CDE911040121CDE91750B3
:101910004FF4E01014911021199010A81591FFF7C1
:1019200043FB28B1EFF3108072B600BFFEE700BFA3
:101930000F20CDE90B054FF48060CDE90E040BA814
:1019400002210D94FFF70EFA20B1EFF3108072B66A
:10195000FEE700BF40F6A3004FF480310090002066
:1019600003914FF0284102900590CDE907016846A8
:10197000FFF71EF920B1EFF3108072B6FEE700BF4B
:101980004FF40070FFF7FCF84FF40060FFF7F8F831
:101990001AB0B0BD4EF68850CEF20000016841F496
:1019A0007001016070470000416A0A070CD4CA0741
:1019B00015D18A071ED44A0727D4CA0630D48A060E
:1019C00039D44A0642D457E00268D0F834C053688C
:1019D00023F4004343EA0C035360CA07E9D00268CA
:1019E000D0F828C0536823F4003343EA0C03536053
:1019F0008A07E0D50268D0F82CC0536823F48033FE
:101A000043EA0C0353604A07D7D50268D0F830C0C8
:101A1000536823F4802343EA0C035360CA06CED5EF
:101A20000268D0F838C0936823F4805343EA0C036B
:101A300093608A06C5D50268D0F83CC0936823F449
:101A4000005343EA0C0393604A0615D5D0F800C052
:101A5000036CDCF80420B3F5801F22F4801242EA04
:101A60000302CCF8042007D1DCF80420436C22F4F4
:101A7000C0021A43CCF80420090658BF7047016819
:101A8000806C4A6822F400221043486070470000CE
:101A9000B0B582B004460020C4F88400FEF7DAFE38
:101AA000216805460A68120737D56FF07E4C20463C
:101AB0004FF4001100222B46CDF800C000F066F96B
:101AC00050B300BF206850E8000F216820F080006C
:101AD00041E80002DAB1206850E8000F216820F0E8
:101AE000800041E8000292B1206850E8000F2168B0
:101AF00020F0800041E800024AB1206850E8000F61
:101B0000216820F0800041E80002002ADAD1032099
:101B100020217C226AE000BF2168086840075DD56B
:101B20006FF07E4C20464FF4800100222B46CDF80A
:101B300000C000F02BF9002850D000BF206850E80A
:101B4000000F216820F4907041E80002BAB32068C9
:101B500050E8000F216820F4907041E8000272B351
:101B6000206850E8000F216820F4907041E80002DE
:101B70002AB3206850E8000F216820F4907041E8F3
:101B80000002002ADAD11AE0206850E8020F21682A
:101B900020F0010041E80202DAB1206850E8020FAB
:101BA000216820F0010041E8020292B1206850E86B
:101BB000020F216820F0010041E802024AB12068CA
:101BC00050E8020F216820F0010041E80202002ADB
:101BD000DAD103202021802208E000BF2020E06726
:101BE000C4F880000021642200202166A150002159
:101BF00084F8781002B0B0BDB0B5054601688068C1
:101C000005F10C041CCC184340EA0403D5F81CC0B1
:101C10000C6849F20C6024EA0000184340EA0C000A
:101C20000860486820F4405010434860A8692A6A58
:101C30008B68104323F43062104344F20042C4F234
:101C40000002914288601BD044F60000C4F20000FC
:101C500081420DD043F60000C4F20100814237D129
:101C600041F23000C4F20200016844A212E000BF59
:101C700041F23000C4F202000068810C06E000BFAF
:101C800041F23000C4F202000068010C42F2481236
:101C9000C0F6000201F0030052F8202041F20020BB
:101CA000BCF5004FC0F27A001AD1082A4FF00101AA
:101CB00000F25F80DFE802F00624365D2C5D5D5D9A
:101CC000340000BFFFF71CF900282BD14DE000BF06
:101CD000102241F20020BCF5004FC0F27A00E4D09F
:101CE000082A4FF0010144D8DFE802F0060E324323
:101CF00016434343300000BFFFF702F940BB34E016
:101D0000FFF712F970B930E0FFF70EF900BB2CE0D5
:101D1000FFF71EF930B928E0FFF71AF9C0B924E03F
:101D20004FF4004069684A0802EB4000B0FBF1F054
:101D30004FF6EF72A0F11001914219D84FF6F071F1
:101D40000140C0F3420008440DE000BF4FF40040E2
:101D500069684FF6EF7200EB5100B0FBF1F0A0F1B3
:101D60001001914204D82968C860002101E000BF39
:101D7000012100220846AA66EA66B0BD0100000003
:101D80000400000008000000020000002DE9F041FE
:101D9000804600681546C2690E461140891BB1FA9B
:101DA00081F14909A94223D1069C2CB3611C29D198
:101DB000C1693140891BB1FA81F14909A94217D1A2
:101DC000C1693140891BB1FA81F14909A9420FD19A
:101DD000C1693140891BB1FA81F14909A94207D192
:101DE000C1693140891BB1FA81F14909A942DFD0AB
:101DF0000020BDE8F08100BFFEF72CFD0320BDE808
:101E0000F08100BF1F4607E0C0693040801BB0FA78
:101E100080F04009A842EBD1FEF71CFDC01BA04298
:101E200000F2B080D8F8000001684907ECD5402ED8
:101E3000EAD0802EE8D0C169090700F1A780C16906
:101E40000905E1D54FF400610162D8F8000050E8BF
:101E5000000FD8F8001020F4907041E80002002A2A
:101E600043D0D8F8000050E8000FD8F8001020F454
:101E7000907041E80002C2B3D8F8000050E8000FAB
:101E8000D8F8001020F4907041E800026AB3D8F846
:101E9000000050E8000FD8F8001020F4907041E8DE
:101EA0000002002AD1D120E0D8F8000050E8020F4B
:101EB000D8F8001020F0010041E802020AB3D8F877
:101EC000000050E8020FD8F8001020F0010041E8AF
:101ED0000202B2B1D8F8000050E8020FD8F80010A2
:101EE00020F0010041E802025AB1D8F8000050E8A1
:101EF000020FD8F8001020F0010041E80202002A89
:101F0000D2D1D8F8600001282CD1D8F8000050E8D0
:101F1000000FD8F8001020F0100041E800020AB3CA
:101F2000D8F8000050E8000FD8F8001020F010009A
:101F300041E80002B2B1D8F8000050E8000FD8F82C
:101F4000001020F0100041E800025AB1D8F800005B
:101F500050E8000FD8F8001020F0100041E800020F
:101F6000002AD2D120200021C8F88000C8F86010D3
:101F7000C8F86810C8F88400032088F87810BDE815
:101F8000F08100BF0320BDE8F08100BF082101629D
:101F9000D8F8000050E8000FD8F8001020F4907036
:101FA00041E80002002A44D0D8F8000050E8000FB1
:101FB000D8F8001020F4907041E80002CAB3D8F8B5
:101FC000000050E8000FD8F8001020F4907041E8AD
:101FD000000272B3D8F8000050E8000FD8F80010E3
:101FE00020F4907041E80002002AD1D121E000BF26
:101FF000D8F8000050E8020FD8F8001020F00100D7
:1020000041E802020AB3D8F8000050E8020FD8F8FD
:10201000001020F0010041E80202B2B1D8F800003F
:1020200050E8020FD8F8001020F0010041E8020249
:102030005AB1D8F8000050E8020FD8F8001020F08C
:10204000010041E80202002AD2D1D8F8600001283C
:102050002CD1D8F8000050E8000FD8F8001020F07C
:10206000100041E800020AB3D8F8000050E8000F61
:10207000D8F8001020F0100041E80002B2B1D8F802
:10208000000050E8000FD8F8001020F0100041E8E0
:1020900000025AB1D8F8000050E8000FD8F800103C
:1020A00020F0100041E80002002AD2D12020C8F818
:1020B000800000200821C8F86000C8F86800C8F84F
:1020C000841088F878000120BDE8F081FEE7000068
:1020D000FEF7C8FCFFF706FCFFF7E6FAFFF7B8FBD0
:1020E000FFF7D6FBFFF74EFBFFF7B2FAFFF780FBD7
:1020F000FFF796FBFEE7F1EE100A4FF6FF71C0F214
:10210000C03120EA010040F04070E1EE100A704753
:102110000000000000000000010203040607080997
:102120000000000001020304020304050607080979
:102130000A0B0C0D0E0F1010010203040506070810
:10214000090A0B0C0D0E0F10000000000400000027
:1021500008000000020000007821000800000020B4
:1021600010000000EC010008882100081000002089
:10217000800800000C0200080100000010000000B0
:0821800000127A0000000000CB
:040000050800018965
:00000001FF
